01001OSTPREUSSEN      1163626091299500007850003065090993001080320000119007219400000790093523000010301711080000188041920100004610045872000005000000000000000
01001WESTPREUSSEN     0953390055685700005840002633055422401274110000230000000000000000079041000014201585080000286016107500002910028189000005100000000000000
02001BERLIN           1398476113192700008090021402111052501037200000093006187600000560056053000005101775550000160040460400003640306672000027600000450000000
03001POTSDAM II       1025867087052900008490003800086672901090790000126006547800000750019872000002301803700000208036307100004190128859000014900000000000000
04001POTSDAM I        1062098089274800008410003899088884901176470000132009562100001080033358000003801862180000209031796700003580138007000015500000310000000
05001FRANKFURT AM ODER0714688061160600008560007826060378001171680000194001912800000320010746000001801352030000224031728600005250004249000000700000000000000
06001POMMERN          0962374081501900008470002183081283601947510000239008874400001090004836000000601760750000217033302700004100015403000001900000000000000
07001BRESLAU          1055620089949500008520002136089735901375950000153000000000000000187339000020901391880000155043206600004820000963000000100002080000000
08001LIEGNITZ         0652205057215300008770001124057102900776870000136000000000000000053640000009401528050000268028685500005020000042000000000000000000000
09001OPPELN           1147745067390700005870009790066411700475160000072000000000000000321334000048400457800000068021697000003270032517000004900000000000000
10001MAGDEBURG-ANHALT 0975106084413100008660001285084284600725530000086002670300000320012899000001502140260000254049176000005830024905000003000000000000000
11001MERSEBURG        0778766066926300008590001947066731600767970000115001783100000270006573000001001612720000242010905800001630294347000044100014380000002
12001THURING-STAATEN  9999999112047099999990002731111773901761870000158000000000000000055748000005002469840000221038705600003460251764000022500000000000000
13001SCHLESWIG-HOLSTEI9999999081113899999990003085080805300618190000077006295000000780008107000001002195790000272037038400004570027301000003400579130000072
14001AUR-OSNABR-OLDENB0635695053401500008400001428053258700121670000023006897400001300135017000025401307320000245014930400002800022848000004300135450000025
15001HANN-HILDES-BRAUN1417451124834400008810002619124572500323180000026010667300000860270771000021701613240000129053521500004300082566000006600568580000046
17001MUN-MIN-SCHAUM-LI1146989099520300008680003050099215300863750000087006517200000660418075000042100969610000098030381300003060021093000002100006640000001
18001ARNSBERG         1335534116568000008730003110116257001777220000153000000000000000329339000028301157650000100047979200004130059952000005100000000000000
19001HESSEN-NASSAU    1431224120891200008450002536120637601103700000091008055500000670209477000017402653610000220049460000004100045734000003800002790000000
20001KOLN-AACHEN      1220653097319900007970002525097067400310710000032003347100000340579212000059700740000000076024711400002550005806000000600000000000000
21001KOBLENZ-TRIER    0962948082510300008570004798082030500175660000022000000000000000475269000057901421030000173018536700002260000000000000000000000000000
22001DUSSELDORF-OST   1122581095107000008470002377094869301488460000157000000000000000262252000027601163910000123024404400002570177160000018700000000000000
23001DUSSELDORF-WEST  0830499070200400008450002976069902800410250000059006658400000950348294000049800493280000071018802900002690005767000000800000010000000
24001OBERBAYERN-SCHWAB1435529117077800008160003846116693200119140000010000000000000000425766000036501297980000111038236200003280043614000003701734780000149
25001NIEDERBAYERN-OBER0714616055422700007760001534055269300000000000000000000000000000274790000049700303610000055014271500002580002514000000501023130000185
26001OBER,MIT UNTERFRA1367465114386600008360003226114064001070070000094000000000000000320565000028102284670000200041525300003640069348000006100000000000000
27001PFALZ            0520430045027700008650001055044922200000000000000008834000001970124077000027600593970000132017017900003790007229000001600000000000000
28001SACHSEN I        1091304091667500008400002815091386001205830000132009725700001060016377000001801678980000184046476900005090046976000005100000000000000
29001SACHSEN II       0753677062165600008250001733061992300720890000116000000000000000003199000000501776120000286012802900002070238994000038600000000000000
30001SACHSEN III      1044592088713300008490002534088459901170740000132000000000000000003627000000401888750000214051895500005870056068000006300000000000000
31001WURTTEM-SIGMARING1500995133129300008870003647132764601825090000138000000000000000303096000022803319630000250047020400003540036371000002700035030000003
32001BADEN            1254228105798900008440004218105377100789760000075000000000000000381135000036202268360000215036682400003480000000000000000000000000000
33001HESSEN           0755957065503300008660001426065360700433590000066007334900001120110853000017001242020000190028921100004430012633000001900000000000000
34001HAMBURG-BREM-STAD1099070097604200008880003809097223300337080000035008001600000820012316000001302518130000259044717200004600083527000008600636810000065
35001MECKLENBURG,LUBEC0514968044800100008700000814044718700583360000131001983900000440000000000000001357010000304022242000004970000000000000000108910000024
36001POSEN            9999999032611099999990001522032458801105020000340005488300001690033640000010400722660000223005329700001640000000000000000000000000000
